:100000000C9454000C9473000C9473000C947300C3
:100010000C9473000C9473000C9473000C94730094
:100020000C9473000C949C010C9473000C9473005A
:100030000C9473000C9473000C9473000C94730074
:100040000C9473000C9473000C9473000C94730064
:100050000C9473000C9473000C9473000C94730054
:100060000C9473000C9473000C9473000C94730044
:100070000C9473000C9473000C9473000C94730034
:100080000C9473000C9473000C9473000C94730024
:100090000C9473000C9473000C9473000C94730014
:1000A0000C9473000C94730011241FBECFEFCDBFCE
:1000B000DFE7DEBF10E4A0E0B0E4E6E6F8E000E051
:1000C0000BBF02C007900D92A430B107D9F720E40E
:1000D000A4E0B0E401C01D92AC31B207E1F70E9488
:1000E00044020C9431040C94000082E88093B20026
:1000F000E0EAF6E08081806480831282138280814E
:10010000816080830895E0EBF0E0908192689083B5
:100110009CB1809598239CB9E0E0F6E080818F7EC9
:100120008083808182608083808181608083089564
:100130008091004090910140809590958093260A8F
:100140009093270A80910840880FE0E0FAE08083CE
:10015000AAE0BAE08C9181608C9380818160808379
:1001600078940895E0E8F0E0808188608083808161
:1001700081608083E0E6F0E0808183608083E8E650
:10018000F0E080818462808311B819B81DB815BA77
:100190008FEF80B988B98CB984BB0E9475008EEB53
:1001A0000E9483000E9498000895909106409F5FEE
:1001B00090930640891770F510920640662309F166
:1001C00080910540882371F080910940811106C01B
:1001D00081E08093094010920540089581508093FA
:1001E00009400895809109408F3038F08EE0809367
:1001F000094081E08093054008958F5F8093094016
:100200000895809109408F5F80930940803110F0FC
:1002100010920940089580910A4090910B4000246B
:10022000969587950794969587950794982F802D96
:100230008093A2069093A306809104408823E1F165
:10024000E0910940F0E0EE0FFF1FE45FFF4B2081DB
:10025000318180910A4090910B402817390770F442
:1002600040910040509101408417950738F0841B5D
:10027000950B80930A4090930B40089520930A4079
:1002800030930B406091074080E00E94D500E091E0
:100290000940F0E0EE0FFF1FE45FFF4B408151810A
:1002A00081E020910A4030910B404217530708F03B
:1002B00080E0809304400895E0910940F0E0EE0F63
:1002C000FF1FE45FFF4B4081518180910A40909174
:1002D0000B408417950790F46091004070910140A5
:1002E0002FEF33E0261B370B8217930738F4860F66
:1002F000971F80930A4090930B40089540930A40C3
:1003000050930B406091074080E00E94D500E0913F
:100310000940F0E0EE0FFF1FE45FFF4B4081518189
:1003200081E020910A4030910B404217530708F0BA
:1003300080E08093044008951F920F920FB60F92B1
:1003400011240BB60F922F933F934F935F936F93AC
:100350007F938F939F93AF93BF93CF93DF93EF934D
:10036000FF93C0E0DAE088818E7F8883EBE0FAE0DB
:100370008081816080830E940B0180910240909176
:100380000340809590958093260A9093270A809148
:100390000840880F8883888181608883FF91EF916E
:1003A000DF91CF91BF91AF919F918F917F916F918D
:1003B0005F914F913F912F910F900BBE0F900FBE09
:1003C0000F901F901895382F662331F1E8E0F6E082
:1003D0008081832B808320E040E050E0261788F462
:1003E0002F5FEAE0F6E090819160908390910D0696
:1003F00090FFFCCF8091100690911106480F591F75
:10040000EDCF70E0CA010E941D04E8E0F6E09081A3
:1004100030953923308302C060E070E0CB0108954D
:100420001F93CF93DF9310E0103150F589B1887F8F
:1004300089B989B1812B89B9C12FD0E06CE081E005
:100440000E94E301BC0180E090E00E94220320E0D2
:1004500030EF4FE755E40E94810220E030EC4FE797
:1004600054E40E94B003CC0FDD1FC45FDF4B0E9439
:10047000F3026883798389B1887F89B91F5FD4CFFC
:10048000DF91CF911F9108950E94B2000E94100247
:100490006CE084E00E94E301BC0180E090E00E94F7
:1004A000220320E030EF4FE755E40E94810220E074
:1004B0003EEF4DE657E40E94B0030E94F302605500
:1004C0007B4F60930240709303406CE083E00E9496
:1004D000E301BC0180E090E00E94220320E030EFC5
:1004E0004FE755E40E94810220E030EC4FE754E4EE
:1004F0000E94B0030E94F302609300407093014099
:10050000C5CF0E9495020C9476030E946F0358F0A9
:100510000E94680340F029F45F3F29F00C945F03C8
:1005200051110C94AA030C9465030E94870368F38D
:100530009923B1F3552391F3951B550BBB27AA279C
:1005400062177307840738F09F5F5F4F220F331FD6
:10055000441FAA1FA9F335D00E2E3AF0E0E832D09E
:1005600091505040E695001CCAF72BD0FE2F29D0A1
:10057000660F771F881FBB1F261737074807AB0773
:10058000B0E809F0BB0B802DBF01FF2793585F4FE8
:100590003AF09E3F510578F00C945F030C94AA0347
:1005A0005F3FE4F3983ED4F3869577956795B795CA
:1005B000F7959F5FC9F7880F911D9695879597F9D5
:1005C0000895E1E0660F771F881FBB1F621773074E
:1005D0008407BA0720F0621B730B840BBA0BEE1F63
:1005E00088F7E09508950E948F0388F09F5798F050
:1005F000B92F9927B751B0F0E1F0660F771F881F28
:10060000991F1AF0BA95C9F714C0B13091F00E9441
:10061000A903B1E008950C94A903672F782F8827C8
:10062000B85F39F0B93FCCF3869577956795B39568
:10063000D9F73EF490958095709561957F4F8F4FD7
:100640009F4F0895E89409C097FB3EF490958095DC
:10065000709561957F4F8F4F9F4F9923A9F0F92F88
:1006600096E9BB279395F695879577956795B79506
:10067000F111F8CFFAF4BB0F11F460FF1BC06F5FEC
:100680007F4F8F4F9F4F16C0882311F096E911C0FE
:10069000772321F09EE8872F762F05C0662371F01F
:1006A00096E8862F70E060E02AF09A95660F771F33
:1006B000881FDAF7880F9695879597F9089597F927
:1006C0009F6780E870E060E008959FEF80EC0895F8
:1006D00000240A9416161706180609060895002421
:1006E0000A9412161306140605060895092E03949B
:1006F000000C11F4882352F0BB0F40F4BF2B11F40F
:1007000060FF04C06F5F7F4F8F4F9F4F089557FD6D
:100710009058440F551F59F05F3F71F04795880F6F
:1007200097FB991F61F09F3F79F087950895121606
:1007300013061406551FF2CF4695F1DF08C01616B2
:1007400017061806991FF1CF869571056105089463
:100750000895E894BB2766277727CB0197F908957A
:100760000E94C3030C9476030E94680338F00E9431
:100770006F0320F0952311F00C945F030C94650334
:1007800011240C94AA030E94870370F3959FC1F370
:10079000950F50E0551F629FF001729FBB27F00D2F
:1007A000B11D639FAA27F00DB11DAA1F649F662784
:1007B000B00DA11D661F829F2227B00DA11D621FD3
:1007C000739FB00DA11D621F839FA00D611D221F8D
:1007D000749F3327A00D611D231F849F600D211D71
:1007E000822F762F6A2F11249F5750409AF0F1F0F4
:1007F00088234AF0EE0FFF1FBB1F661F771F881F5D
:1008000091505040A9F79E3F510580F00C945F0332
:100810000C94AA035F3FE4F3983ED4F38695779552
:100820006795B795F795E7959F5FC1F7FE2B880F02
:10083000911D9695879597F90895AA1BBB1B51E1C9
:1008400007C0AA1FBB1FA617B70710F0A61BB70B40
:10085000881F991F5A95A9F780959095BC01CD01E5
:060860000895F894FFCF9B
:040866000100C05D70
:00000001FF
